:100000000C942A000C9447000C9447000C94470071
:100010000C9447000C9447000C9447000C94470044
:100020000C9447000C9447000C9447000C94470034
:100030000C9447000C9447000C9447000C94470024
:100040000C9447000C9447000C9447000C94470014
:100050000C94470011241FBECFE5D4E0DEBFCDBF16
:1000600010E0A0E6B0E0E8E9F2E002C005900D92F1
:10007000AE36B107D9F720E0AEE6B0E001C01D9280
:10008000A037B207E1F70E9482000C944A010C9459
:1000900000008BBB81E088BB8FE99FE00197F1F7FF
:1000A00000C0000018BA9FEF20E782E09150204086
:1000B0008040E1F700C00000089588E30E944900F5
:1000C00086E00E94490081E00E94490080E80E9489
:1000D00049008EE00E94490008958BBB85E088BBF3
:1000E0008FE99FE00197F1F700C0000084E088BB32
:1000F0009FEF20E782E0915020408040E1F700C070
:1001000000000895CF93DF93CDB7DEB72E970FB6DB
:10011000F894DEBF0FBECDBF8FEF87BB8ABB8FE0E9
:1001200081BB0E945D008EE0E0E6F0E0DE0111960A
:1001300001900D928A95E1F70DC00E946D008091AB
:100140006F008F5F80936F008FE99FE00197F1F759
:1001500000C0000080916F00E1E0F0E0EC0FFD1FB7
:10016000E80FF11D80818111E8CF10926E008CC0E4
:1001700087EF90E002C0959587952A95E2F7806F0A
:1001800082BB8FE99FE00197F1F700C0000080EC8F
:100190000E94490080B38E3E21F480E30E946D00EE
:1001A00068C080B38E3D21F481E30E946D0061C080
:1001B00080B38E3B21F482E30E946D005AC080B36D
:1001C0008E3721F483E30E946D0053C080B38D3ECF
:1001D00021F484E30E946D004CC080B38D3D21F476
:1001E00085E30E946D0045C080B38D3B21F486E31A
:1001F0000E946D003EC080B38D3721F487E30E94DA
:100200006D0037C080B38B3E21F488E30E946D00FF
:1002100030C080B38B3D21F489E30E946D0029C07A
:1002200080B38B3B21F481E40E946D0022C080B337
:100230008B3721F482E40E946D001BC080B3873E9F
:1002400021F483E40E946D0014C080B3873D21F443
:1002500084E40E946D000DC080B3873B21F485E4E7
:100260000E946D0006C080B3873719F486E40E94AF
:100270006D0080916E00843011F410926E008091B8
:100280006E008F5F80936E0020916E00243008F422
:080290006FCF60CFF894FFCF9F
:0E029800507265737320616E79204B6579009A
:00000001FF
